:020000040800F2
:1000000000500020F1000008690C00086B0C00088B
:100010006D0C00086F0C0008710C00080000000057
:10002000000000000000000000000000730C000849
:10003000750C000800000000770C0008790C00081F
:100040007B0C00087D0C00087F0C0008810C000868
:10005000830C0008850C0008870C0008890C000838
:100060008B0C00088D0C00088F0C0008910C000808
:10007000930C0008950C0008970C0008990C0008D8
:100080009B0C00089D0C00089F0C0008A10C0008A8
:10009000A30C0008A50C0008A70C0008A90C000878
:1000A000AB0C0008AD0C0008AF0C0008B10C000848
:1000B000B30C0008B50C0008B70C0008B90C000818
:1000C000BB0C0008BD0C0008BF0C0008C10C0008E8
:1000D000C30C0008C50C0008C70C0008C90C0008B8
:0C00E000CB0C0008CD0C0008CF0C000871
:1000F0000C4885460C480D490D4A9142BEBF50F848
:10010000043B41F8043BF8E70A480B498842BCBF6E
:10011000002240F8042BF9DB00F0DCF800F046F890
:10012000FEE7000000500020D41E00080000002060
:1001300004000020040000201800002010F1FF300F
:1001400007D34FF4FA531A46013B002AF6D000BFFA
:10015000F9E7704708B5074B5A6A074B92B21888FF
:100160001A80101A80B201F019FC044901F06AFCEF
:1001700008BD00BF002C014004000020BD378635BB
:10018000094B9A6942F400629A61A3F564434722DD
:100190009A624FF6FF72DA6200225A621A6842F0DF
:1001A00001021A60FFF7D6BF001002402DE9FF419F
:1001B00000F090F8FFF7E4FF00F0FEFC00F0C8FC50
:1001C00000F04CFB00F012F900F070F9012000F093
:1001D0009BF900F05DF93A4800F022FD6420FFF73A
:1001E000ADFF00F073FB002806DA364800F018FD7A
:1001F000002000F0C9F9FBE7334800F011FD01A829
:1002000000F098FB002806DA304800F009FD0020D5
:1002100000F0BAF9FBE7BDF90810BDF9040000F0E1
:1002200017FC054600F050FB00F04CFCFFF792FF76
:10023000044601A800F07EFB00280BDA002000F045
:10024000A3F9234800F0ECFC1420FFF777FFFFF739
:1002500081FFEBE7204600F0F1F90646204600F06A
:10026000C7F90146304601F0E5FA4FF07C5101F044
:10027000E9FB00F009FABDF908100746BDF90400D2
:1002800000F0E6FB8046BDF90C0000F0F5FB0646E9
:10029000314642462346284600F0F8FB05462946EB
:1002A00032462346384600F013FC01F091FD00B2BF
:1002B00000F06AF900F0BEFC0A20FFF73FFFB5E747
:1002C0001C1E0008451E0008591E00086D1E00086F
:1002D000871E0008254B1A68194642F001021A6071
:1002E00000225A601A6822F080721A601A6842F47A
:1002F00080321A600A681D4B9203FBD51C4A1168B4
:1003000041F010011160116821F0070111601168BE
:1003100041F0020111605968164A0A405A605A6851
:100320005A605A6842F480625A605A685A605A6841
:1003300042F4E8125A601A6842F080721A601A6831
:1003400012F0007F094AFAD0536823F00303536088
:10035000536843F002035360536803F00C03082B07
:10036000FAD1054A054B1A60704700BF00100240E1
:10037000002002400FC0C3FF00A24A04000000207A
:1003800083684FF6FF7223F007038360836843F0AE
:1003900003038360836923F4407323F003038361C1
:1003A000836943F4807343F001038361836923F419
:1003B000704323F0F0038361836943F4405343F0B7
:1003C00030038361036A23F022030362036A43F06C
:1003D0001103036200238362C2624362012343610B
:1003E000036843F00103036070470000264B9A69DD
:1003F00042F01D029A61DA6942F00702DA61A3F560
:1004000084331A6822F0FF021A601A6842F0BB02B5
:100410001A601E4A116821F470011160116841F4DC
:1004200040111160516821F00F015160516841F095
:1004300003015160596821F47F615960596841F4A2
:100440004C715960596821F00F015960596841F0A9
:10045000030159604FF4907151614FF4C0615961CB
:100460004FF480715961196821F07F411960196852
:1004700041F088411960136823F07F4313601368CB
:1004800043F088431360704700100240000C0140A5
:1004900008B50448FFF774FFBDE808400248FFF7BD
:1004A0006FBF00BF00040040000800404FF08043D1
:1004B00047229A6202F56872DA6200225A639A63EE
:1004C0009A6922F078029A619A6942F068029A6108
:1004D0009A6922F4F0429A619A6942F4D0429A6190
:1004E0001A6A42F001021A621A6A42F010021A6293
:1004F0001A6842F080021A6001225A611A6842F0BA
:1005000001021A6070470000034B4FF4807208B17B
:100510001A6170475A61704700080140074B20225A
:100520001A614FF480725A61A3F580634FF4007230
:100530001A614FF480625A61704700BF000C01409D
:10054000074B4FF480721A6120225A61A3F5806331
:100550004FF480621A614FF400725A61704700BF15
:10056000000C0140074B4FF490721A614FF4C062C7
:10057000A3F580631A614FF0804300225A639A63A7
:10058000704700BF000C0140B0F57A7F10B509DC60
:1005900010F57A7FB8BF144806DB28B9BDE81040D3
:1005A000FFF7E0BF4FF47A7080EAE074A4EBE074E8
:1005B0000028A1B202DDFFF7B1FF01E0FFF7C0FFA5
:1005C00008B200F099FE06A3D3E9002300F0FAFE7A
:1005D00001F00AF94FF0804358639C6310BD00BFDF
:1005E000666666666666F23F18FCFFFFAFF3008042
:1005F00038B50E490E4B0D685A6A044692B20D4B3F
:1006000025B91A8001230B60002038BD1D880A49D6
:10061000551B1A80ADB201F0B3FB00B1064C28B2F5
:1006200001F0BCF9214601F0C1FA38BD08000020F4
:1006300000040040100000206F12033A38B50E4944
:100640000E4B0D685A6A044692B20D4B25B91A80BA
:1006500001230B60002038BD1D880A49551B1A80F4
:10066000ADB201F08DFB00B1064C28B201F096F955
:10067000214601F09BFA38BD0C0000200008004024
:10068000120000206F12033A10B50A4900F1004031
:1006900001F0D8F90849044601F090FB30B9204632
:1006A000064901F06DFB10B1044C00E0024C2046FD
:1006B00010BD00BFF4FD543C00002041000020C1EB
:1006C000054B06490A68104204D1013BFAD14FF0AC
:1006D000FF30704700207047A0860100145800408A
:1006E00013B5094CD02323610220FFF7E9FF00284E
:1006F00006DB636900200193A3690193019B01E07C
:100700004FF0FF3002B010BD0058004038B5094C22
:1007100005462368402023F480632360FFF7D0FF61
:10072000002803DB236900202B7038BD4FF0FF3019
:1007300038BD00BF0058004010B504468020FFF7C8
:10074000BFFF002803DB034B00201C6110BD4FF0EE
:10075000FF3010BD00580040034B01201A6842F4DE
:1007600080721A60FFF7ACBF005800404FF4FA6384
:100770001A46013B0AB100BFFAE77047F8B5354B9E
:1007800035491A684FF4806622F001021A604B68FE
:10079000092423F470634B604B68374643F4E063ED
:1007A0004B604B6823F470434B604B6843F4E04369
:1007B0004B604FF440630B61FFF7D8FF4F61264851
:1007C000FFF7D4FF0E61FFF7D1FF013C4FF48065C6
:1007D000F4D10561FFF7CAFF4FF400614161FFF7F3
:1007E000C5FF0561FFF7C2FF0161FFF7BFFF1949B0
:1007F0000B6843F400430B60FFF7B8FF0B6823F46A
:1008000000430B60436823F470634360436843F420
:1008100070634360436823F470434360436843F468
:1008200070434360FFF7A2FF24230C604B60B423A6
:10083000CB6125230B620B682B430B600B6843F0E5
:1008400001030B600B6843F400730B60BDE8F840D4
:10085000FFF78CBF00580040000C0140194B9A690B
:1008600042F009029A61DA6942F48002DA61A3F582
:1008700082335A6822F470625A605A6842F4706295
:100880005A605A6822F470425A605A6842F47042C0
:100890005A60A3F534431A6842F400421A601A6899
:1008A00022F400421A6024225A60B422DA6125221E
:1008B0001A621A6842F480621A601A6842F00102F1
:1008C0001A607047001002407047000010B5164BC8
:1008D000164A146814F0020402D0013BF9D107E073
:1008E000FFF73AFF002803DBFFF7FAFE002804DADF
:1008F000FFF744FF4FF0FF3010BD6B20FFF71CFFE8
:100900000028F5DB2046FFF717FF0028F0DB042066
:10091000FFF7D6FE0028EBDB054B20461A6842F4B1
:1009200000721A6010BD00BFA08601001858004078
:1009300000580040F0B5434B434A87B00446166860
:1009400016F0020602D0013BF9D107E0FFF704FFE1
:10095000002803DBFFF7C4FE002804DAFFF70EFFD0
:100960004FF0FF306CE03B20FFF7E6FE0028F5DBA0
:100970000420FFF7A5FE0028F0DBFFF7EDFE0028BE
:10098000ECDB324DD1232B610220FFF799FE0028CA
:10099000E4DB2B6802AF43F480632B606B6907F1E3
:1009A0000D0C0193AB690193019BF3B20D2B0DD19B
:1009B0002B68604623F480632B602B6843F400733C
:1009C0002B60FFF7A3FE002807DAC7E74020FFF7F8
:1009D00077FE0028C2DB2B69F35501360E2EE4D1D9
:1009E0001A4B00201A6842F480621A609DF80820B1
:1009F0009DF8093043EA022323809DF80A209DF8E0
:100A00000B3043EA022363809DF80C209DF80D30E3
:100A100043EA0223A3809DF810209DF8113043EA99
:100A20000223E3809DF812209DF8133043EA02234D
:100A300023819DF814209DF8153043EA0223638139
:100A400007B0F0BDA08601001858004000580040D3
:100A500038B540420D4600F0A1FF0446284600F09C
:100A60009DFF0146204600F033F9024900F0EAFFFD
:100A700038BD00BFE12E654208B500F08FFF024986
:100A800001F094F808BD00BF0000034338B50446E8
:100A900008461946154600F0D5FF0146204600F0ED
:100AA000C9FE064900F0CEFF05490446284600F07D
:100AB000C9FF0146204600F0BDFE38BD48E17A3F3F
:100AC0000AD7A33C014B00221A6070471400002093
:100AD000F8B500F100401D46164600F0A9FE174C7F
:100AE0002946074600F0AEFF216800F0A3FE144936
:100AF00020600546384600F0A5FF00210446284640
:100B000000F0A0FF0146204600F094FE0D49044687
:100B1000304600F097FF0146204600F089FE0A4962
:100B2000044601F04BF930B92046084901F028F994
:100B300010B1064C00E0044C2046F8BD1400002023
:100B4000000070429A99993F00006144000061C41E
:100B5000184B5A6802F030025A605A6842F010028C
:100B60005A6003F588339A6942F010029A61DA6993
:100B700042F48022DA61A3F580335A6802F470628D
:100B80005A605A6842F430625A605A6802F47042FD
:100B90005A605A6842F480425A60A3F5484340F6CE
:100BA000A6629A60DA6842F4005242F00C02DA60FF
:100BB000704700BF00000140134B9A6942F00402E5
:100BC0009A61DA6942F40032DA61A3F584331A6873
:100BD00022F470621A601A6842F430621A601A686D
:100BE00022F470421A601A6842F480421A60A3F537
:100BF00044434FF49C729A600C22DA60DA6842F443
:100C00000052DA60704700BF00100240034A1368C8
:100C10001B06FCD5014B5860704700BF00440040E4
:100C200008B5411E11F8010F10B1FFF7EFFFF9E70A
:100C300008BD0000084B10B51A6892060BD55C6819
:100C40000648FFF7EDFFE0B2FFF7E0FFBDE8104018
:100C50000348FFF7E5BF10BD00480040931E0008A1
:100C6000901E0008FFF75CBAFCE7FBE7FAE7F9E73C
:100C7000F8E7F7E7F6E7F5E7F4E7F3E7F2E7F1E798
:100C8000F0E7EFE7EEE7EDE7ECE7EBE7EAE7E9E7C8
:100C9000E8E7E7E7E6E7E5E7E4E7E3E7E2E7E1E7F8
:100CA000E0E7DFE7DEE7DDE7DCE7DBE7DAE7D9E728
:100CB000D8E7D7E7D6E7D5E7D4E7D3E7D2E7D1E758
:100CC000D0E7CFE7CEE7CDE7CCE7CBE7CAE7C9E788
:100CD00000F000B8F8B520F0004221F000450646CB
:100CE000B2F1FF4FD8BFB5F1FF4F04463BDCB1F185
:100CF0007E5F43D08F1707F0020747EAD07742B9EB
:100D0000022F35D0032F38D140F6DB70CCF24900EA
:100D1000F8BD0DB3B5F1FF4F56D0B2F1FF4F1BD068
:100D2000521BD2153C2AC4BF40F6DB70C3F6C97013
:100D300028DD012F53D0022F38D0002F52D04BF690
:100D40002E51C3F2BB3100F075FD40F6DB71C4F2E9
:100D5000490100F06DFDF8BD002C40F6DB7022DB90
:100D6000C3F6C970F8BD0846314600F063FDF8BD12
:100D700040F6DB70C4F24900F8BDF8BDBDE8F840AC
:100D800000F04CB812F13C0FACBF0022012212EA75
:100D9000D17218BF0020CCD100F008FF00F056F946
:100DA00000F03CF8C5E7CBF6C970F8BD4BF62E5104
:100DB000C3F2BB3100F03EFD014640F6DB70C4F2E9
:100DC000490000F035FDF8BDB2F1FF4F0BD0022F06
:100DD000CED0032F98D0012F10D00020F8BD00F105
:100DE0000040F8BDF8BD022F13D0032F0CD0012F07
:100DF00040F6DB7005D0C3F64970F8BD4FF00040F7
:100E0000F8BDCBF64970F8BD4CF6E430CCF21600D4
:100E1000F8BD4CF6E430C4F21600F8BD2DE9F041FF
:100E200020F00045B5F1A14F044606460CDBB5F1B4
:100E3000FF4F00F39C80002C40F6DB7040F3CC8029
:100E4000C3F6C970BDE8F0814FF6FF73C3F6DF63E8
:100E50009D4200F3A180B5F1445FC0F28D804FF058
:100E6000FF372146204600F0EDFD0146804600F0A8
:100E7000E9FD46F6D711C3F68541054600F0E2FDCF
:100E80004DF65921C3F64B5100F0D4FC294600F031
:100E9000D9FD46F63531C3F6885100F0CBFC294622
:100EA00000F0D0FD42F66E61C3F6BA5100F0C2FC0C
:100EB000294600F0C7FD44F62511C3F6126100F083
:100EC000B9FC294600F0BEFD4AF6AB21C3F6AA6183
:100ED00000F0B0FC414600F0B5FD4AF22121CBF60E
:100EE00015518046284600F0ADFD4FF26B11C3F658
:100EF0006E5100F09DFC294600F0A4FD48F295716A
:100F0000C3F69D5100F094FC294600F09BFD48F685
:100F10003861C3F6E35100F08BFC294600F092FDE6
:100F20004CF6CD41C3F64C6100F082FC294600F03E
:100F300089FD7B1C0146404652D041F69C6500F07D
:100F400079FCC0F60005214600F07CFD05EB870327
:100F5000196900F06DFC214600F06AFC014655F865
:100F6000270000F065FC002E32DBBDE8F081014671
:100F700000F060FCBDE8F0814FF2CA21C7F24911D0
:100F800000F058FC4FF07E5100F018FF00283FF4AD
:100F900066AF2046BDE8F08100F058F84FF6FF73C9
:100FA000C3F697739D424FF6FF73044623DCC3F6E6
:100FB0002F739D4241DC0146002700F03BFC4FF0BF
:100FC0007E5100F035FC4FF080410546204623E07D
:100FD00000F10040BDE8F081CBF6C970BDE8F081BA
:100FE00000F028FC214600F02DFD0146204600F0CF
:100FF0001FFCBDE8F081C4F21B039D4214DC4FF0DE
:101000007F51022700F014FC4FF07F510546204627
:1010100000F018FD4FF07E5100F00CFC0146284610
:1010200000F0C4FD04461CE701460020CBF68070AA
:10103000032700F0BBFD044613E74FF07E51012764
:1010400000F0F6FB05462046E4E700BF20F0004034
:10105000704700BF81F0004102E000BF83F0004311
:1010600030B54FEA41044FEA430594EA050F08BF43
:1010700090EA020F1FBF54EA000C55EA020C7FEA07
:10108000645C7FEA655C00F0E2804FEA5454D4EB84
:101090005555B8BF6D420CDD2C4480EA020281EA4E
:1010A000030382EA000083EA010180EA020281EA86
:1010B0000303362D88BF30BD11F0004F4FEA0131D8
:1010C0004FF4801C4CEA113102D0404261EB4101E7
:1010D00013F0004F4FEA03334CEA133302D052426D
:1010E00063EB430394EA050F00F0A780A4F1010429
:1010F000D5F1200E0DDB02FA0EFC22FA05F2801863
:1011000041F1000103FA0EF2801843FA05F3594148
:101110000EE0A5F120050EF1200E012A03FA0EFCC7
:1011200028BF4CF0020C43FA05F3C01851EBE371F1
:1011300001F0004507D54FF0000EDCF1000C7EEB0E
:1011400000006EEB0101B1F5801F1BD3B1F5001F4C
:101150000CD349085FEA30004FEA3C0C04F101046B
:101160004FEA445212F5800F80F09A80BCF1004F94
:1011700008BF5FEA500C50F1000041EB045141EA16
:10118000050130BD5FEA4C0C404141EB010111F417
:10119000801FA4F10104E9D191F0000F04BF0146C2
:1011A0000020B1FA81F308BF2033A3F10B03B3F1A0
:1011B00020020CDA0C3208DD02F1140CC2F10C0230
:1011C00001FA0CF021FA02F10CE002F11402D8BF8E
:1011D000C2F1200C01FA02F120FA0CFCDCBF41EA5A
:1011E0000C019040E41AA2BF01EB0451294330BD29
:1011F0006FEA04041F3C1CDA0C340EDC04F1140406
:10120000C4F1200220FA04F001FA02F340EA0300DC
:1012100021FA04F345EA030130BDC4F10C04C4F122
:10122000200220FA02F001FA04F340EA0300294602
:1012300030BD21FA04F0294630BD94F0000F83F44C
:10124000801306BF81F480110134013D4EE77FEA2F
:10125000645C18BF7FEA655C29D094EA050F08BF7B
:1012600090EA020F05D054EA000C04BF194610465C
:1012700030BD91EA030F1EBF0021002030BD5FEAA0
:10128000545C05D14000494128BF41F0004130BDC8
:1012900014F580043CBF01F5801130BD01F000451C
:1012A00045F0FE4141F470014FF0000030BD7FEA8F
:1012B000645C1ABF194610467FEA655C1CBF0B468A
:1012C000024650EA013406BF52EA033591EA030FA1
:1012D00041F4002130BD00BF90F0000F04BF002199
:1012E000704730B54FF4806404F132044FF00005CC
:1012F0004FF0000150E700BF90F0000F04BF002145
:10130000704730B54FF4806404F1320410F00045AA
:1013100048BF40424FF000013EE700BF42004FEAA5
:10132000E2014FEA31014FEA02701FBF12F07F4322
:1013300093F07F4F81F06051704792F0000F14BF1F
:1013400093F07F4F704730B54FF4607401F0004563
:1013500021F0004120E700BF50EA010208BF7047BA
:1013600030B54FF000050AE050EA010208BF7047AF
:1013700030B511F0004502D5404261EB41014FF418
:10138000806404F132045FEA915C3FF4DCAE4FF01C
:1013900003025FEADC0C18BF03325FEADC0C18BF03
:1013A000033202EBDC02C2F1200300FA03FC20FA54
:1013B00002F001FA03FE40EA0E0021FA02F11444A1
:1013C000C1E600BF70B54FF0FF0C4CF4E06C1CEAB6
:1013D00011541DBF1CEA135594EA0C0F95EA0C0F2B
:1013E00000F0DEF82C4481EA030621EA4C5123EA9E
:1013F0004C5350EA013518BF52EA033541F48011CD
:1014000043F4801338D0A0FB02CE4FF00005E1FB7F
:1014100002E506F00042E0FB03E54FF00006E1FBC9
:1014200003569CF0000F18BF4EF0010EA4F1FF040C
:10143000B6F5007F64F5407404D25FEA4E0E6D414C
:1014400046EB060642EAC62141EA55514FEAC5205D
:1014500040EA5E504FEACE2EB4F1FD0C88BFBCF5D9
:10146000E06F1ED8BEF1004F08BF5FEA500E50F18A
:10147000000041EB045170BD06F0004646EA010150
:1014800040EA020081EA0301B4EB5C04C2BFD4EB82
:101490000C0541EA045170BD41F480114FF0000E7B
:1014A000013C00F3AB8014F1360FDEBF002001F0E9
:1014B000004170BDC4F10004203C35DA0C341BDC63
:1014C00004F11404C4F1200500FA05F320FA04F035
:1014D00001FA05F240EA020001F0004221F0004169
:1014E00010EBD37021FA04F642EB06015EEA430EDC
:1014F00008BF20EAD37070BDC4F10C04C4F120050C
:1015000000FA04F320FA05F001FA04F240EA0200BE
:1015100001F0004110EBD37041F100015EEA430E8F
:1015200008BF20EAD37070BDC4F1200500FA05F2AF
:101530004EEA020E20FA04F301FA05F243EA02032E
:1015400021FA04F001F0004121FA04F220EA02003D
:1015500000EBD3705EEA430E08BF20EAD37070BD83
:1015600094F0000F0FD101F00046400041EB010163
:1015700011F4801F08BF013CF7D041EA060195F045
:10158000000F18BF704703F00046520043EB0303FF
:1015900013F4801F08BF013DF7D043EA06037047EC
:1015A00094EA0C0F0CEA135518BF95EA0C0F0CD0F7
:1015B00050EA410618BF52EA4306D1D181EA03013D
:1015C00001F000414FF0000070BD50EA410606BF37
:1015D0001046194652EA430619D094EA0C0F02D17C
:1015E00050EA013613D195EA0C0F05D152EA0336C1
:1015F0001CBF104619460AD181EA030101F00041DF
:1016000041F0FE4141F470014FF0000070BD41F027
:10161000FE4141F4780170BD70B54FF0FF0C4CF401
:10162000E06C1CEA11541DBF1CEA135594EA0C0F20
:1016300095EA0C0F00F0A7F8A4EB050481EA030E6D
:1016400052EA03354FEA013100F088804FEA033354
:101650004FF0805545EA131343EA12634FEA022222
:1016600045EA111545EA10654FEA00260EF00041E3
:101670009D4208BF964244F1FD0404F5407402D235
:101680005B084FEA3202B61A65EB03055B084FEAC6
:1016900032024FF480104FF4002CB6EB020E75EBC3
:1016A000030E22BFB61A754640EA0C005B084FEAEB
:1016B0003202B6EB020E75EB030E22BFB61A754668
:1016C00040EA5C005B084FEA3202B6EB020E75EBB3
:1016D000030E22BFB61A754640EA9C005B084FEA2B
:1016E0003202B6EB020E75EB030E22BFB61A754638
:1016F00040EADC0055EA060E18D04FEA051545EA27
:1017000016754FEA06164FEAC30343EA52734FEACF
:10171000C2025FEA1C1CC0D111F4801F0BD141EA48
:1017200000014FF000004FF0004CB6E711F4801FAD
:1017300004BF01430020B4F1FD0C88BFBCF5E06F8D
:101740003FF6AFAEB5EB030C04BFB6EB020C5FEA9D
:10175000500C50F1000041EB045170BD0EF0004EF2
:101760004EEA113114EB5C04C2BFD4EB0C0541EA24
:10177000045170BD41F480114FF0000E013C90E621
:1017800045EA060E8DE60CEA135594EA0C0F08BFE5
:1017900095EA0C0F3FF43BAF94EA0C0F0AD150EAE4
:1017A00001347FF434AF95EA0C0F7FF425AF104677
:1017B00019462CE795EA0C0F06D152EA03353FF49F
:1017C000FDAE1046194622E750EA410618BF52EA1C
:1017D00043067FF4C5AE50EA41047FF40DAF52EAF0
:1017E00043057FF4EBAE12E74A0011D212F5001266
:1017F00011D20DD56FF47873B3EB62520ED44FEA69
:10180000C12343F0004343EA505323FA02F07047E8
:101810004FF00000704750EA013002D14FF0FF3026
:1018200070474FF00000704780F0004002E000BFBA
:1018300081F0004142001FBF5FEA410392EA030FBB
:101840007FEA226C7FEA236C6AD04FEA1262D2EB05
:101850001363C1BFD218414048404140B8BF5B420A
:10186000192B88BF704710F0004F40F4000020F0A3
:101870007F4018BF404211F0004F41F4000121F0B9
:101880007F4118BF494292EA030F3FD0A2F1010203
:1018900041FA03FC10EB0C00C3F1200301FA03F141
:1018A00000F0004302D5494260EB4000B0F5000F64
:1018B00013D3B0F1807F06D340084FEA310102F123
:1018C0000102FE2A51D2B1F1004F40EBC25008BFD5
:1018D00020F0010040EA03007047490040EB00009F
:1018E00010F4000FA2F10102EDD1B0FA80FCACF1CE
:1018F000080CB2EB0C0200FA0CF0AABF00EBC250CD
:1019000052421843BCBFD0401843704792F0000FBA
:1019100081F4000106BF80F400000132013BB5E70D
:101920004FEA41037FEA226C18BF7FEA236C21D083
:1019300092EA030F04D092F0000F08BF08467047E8
:1019400090EA010F1CBF0020704712F07F4F04D1B6
:10195000400028BF40F00040704712F100723CBFC9
:1019600000F50000704700F0004343F0FE4040F4F3
:10197000000070477FEA226216BF08467FEA2363B1
:101980000146420206BF5FEA412390EA010F40F49C
:10199000800070474FF0000304E000BF10F00043E8
:1019A00048BF40425FEA000C08BF704743F09643CF
:1019B00001464FF000001CE050EA010208BF7047EA
:1019C0004FF000030AE000BF50EA010208BF704771
:1019D00011F0004302D5404261EB41015FEA010C86
:1019E00002BF84460146002043F0B64308BFA3F17E
:1019F0008053A3F50003BCFA8CF2083AA3EBC25360
:101A000010DB01FA02FC634400FA02FCC2F120027E
:101A1000BCF1004F20FA02F243EB020008BF20F0B5
:101A20000100704702F1200201FA02FCC2F120021B
:101A300050EA4C0021FA02F243EB020008BF20EA10
:101A4000DC7070474FF0FF0C1CEAD0521EBF1CEA3E
:101A5000D15392EA0C0F93EA0C0F6FD01A4480EA2C
:101A6000010C400218BF5FEA41211ED04FF0006315
:101A700043EA501043EA5111A0FB01310CF0004041
:101A8000B1F5000F3EBF490041EAD3715B0040EA67
:101A9000010062F17F02FD2A1DD8B3F1004F40EB37
:101AA000C25008BF20F00100704790F0000F0CF00A
:101AB000004C08BF49024CEA502040EA51207F3ACE
:101AC000C2BFD2F1FF0340EAC250704740F40000A9
:101AD0004FF00003013A5DDC12F1190FDCBF00F09A
:101AE00000407047C2F10002410021FA02F1C2F148
:101AF000200200FA02FC5FEA310040F1000053EAE4
:101B00004C0308BF20EADC70704792F0000F00F031
:101B1000004C02BF400010F4000F013AF9D040EA37
:101B20000C0093F0000F01F0004C02BF490011F4CB
:101B3000000F013BF9D041EA0C018FE70CEAD153C9
:101B400092EA0C0F18BF93EA0C0F0AD030F0004C49
:101B500018BF31F0004CD8D180EA010000F00040FD
:101B6000704790F0000F17BF90F0004F084691F0BB
:101B7000000F91F0004F14D092EA0C0F01D14202F5
:101B80000FD193EA0C0F03D14B0218BF084608D1BE
:101B900080EA010000F0004040F0FE4040F4000008
:101BA000704740F0FE4040F4400070474FF0FF0C9B
:101BB0001CEAD0521EBF1CEAD15392EA0C0F93EAE2
:101BC0000C0F69D0A2EB030280EA010C49024FEA34
:101BD000402037D04FF0805343EA111143EA1013ED
:101BE0000CF000408B4238BF5B0042F17D024FF4A5
:101BF000000C8B4224BF5B1A40EA0C00B3EB510F80
:101C000024BFA3EB510340EA5C00B3EB910F24BF68
:101C1000A3EB910340EA9C00B3EBD10F24BFA3EBED
:101C2000D10340EADC001B0118BF5FEA1C1CE0D1B5
:101C3000FD2A3FF650AF8B4240EBC25008BF20F068
:101C4000010070470CF0004C4CEA50207F32C2BFBC
:101C5000D2F1FF0340EAC250704740F400004FF059
:101C60000003013A37E792F0000F00F0004C02BF8A
:101C7000400010F4000F013AF9D040EA0C0093F054
:101C8000000F01F0004C02BF490011F4000F013BAE
:101C9000F9D041EA0C0195E70CEAD15392EA0C0F16
:101CA00008D142027FF47DAF93EA0C0F7FF470AF4E
:101CB000084676E793EA0C0F04D14B023FF44CAF91
:101CC00008466EE730F0004C18BF31F0004CCAD126
:101CD00030F000427FF45CAF31F000437FF43CAF62
:101CE0005FE700BF4FF0FF3C06E000BF4FF0010C84
:101CF00002E000BF4FF0010C4DF804CD4FEA400266
:101D00004FEA41037FEA226C18BF7FEA236C11D0AF
:101D100001B052EA530C18BF90EA010F58BFB2EB62
:101D2000030088BFC81738BF6FEAE17018BF40F0E2
:101D3000010070477FEA226C02D15FEA402C05D196
:101D40007FEA236CE4D15FEA412CE1D05DF8040B1B
:101D5000704700BF844608466146FFE70FB5FFF7AE
:101D6000C9FF002848BF10F1000F0FBD4DF808ED66
:101D7000FFF7F4FF0CBF012000205DF808FB00BF57
:101D80004DF808EDFFF7EAFF34BF012000205DF8B1
:101D900008FB00BF4DF808EDFFF7E0FF94BF0120FE
:101DA00000205DF808FB00BF4DF808EDFFF7D2FFFB
:101DB00094BF012000205DF808FB00BF4DF808ED3E
:101DC000FFF7C8FF34BF012000205DF808FB00BF0B
:101DD0004FEA4002B2F1FE4F0FD34FF09E03B3EB38
:101DE00012620DD94FEA002343F0004310F0004F78
:101DF00023FA02F018BF404270474FF000007047CE
:101E000012F1610F01D1420205D110F0004008BF6C
:101E10006FF0004070474FF0000070474D5055364E
:101E20003035302049324332202B20555341525413
:101E300032207069746368207465737420737461F0
:101E400072740D0A004D50553630353020696E6978
:101E500074206661696C0D0A004D5055363035307E
:101E600020696E697420646F6E650D0A004D5055CF
:101E70003630353020666972737420726561642073
:101E80006661696C0D0A00493243204552524F5237
:101E90000D0A00434D44203A200000003863ED3E17
:101EA000DA0F493F5E987B3FDA0FC93F6937AC31A3
:101EB00068212233B40F14336821A233F8B500BF70
:101EC000F8BC08BC9E467047F8B500BFF8BC08BC1B
:041ED0009E46704773
:041ED40000127A007E
:04000005080000F1FE
:00000001FF
