:020000040800F2
:1000000000500020ED000008E9120008EB12000883
:10001000ED120008EF120008F112000800000000C5
:10002000000000000000000000000000F3120008C3
:10003000F512000800000000F7120008F91200088D
:10004000FB120008FD120008FF120008011300084F
:10005000031300080513000807130008091300081C
:100060000B1300080D1300080F13000811130008EC
:1000700013130008151300081713000819130008BC
:100080001B1300081D1300081F130008211300088C
:10009000231300082513000827130008291300085C
:1000A0002B1300082D1300082F130008311300082C
:1000B00033130008351300083713000839130008FC
:1000C0003B1300083D1300083F13000841130008CC
:1000D000431300084513000847130008491300089C
:0C00E0004B1300084D1300084F130008DC
:1000EC000C4885460C480D490D4A9142BEBF50F84C
:1000FC00043B41F8043BF8E70A480B498842BCBF73
:10010C00002240F8042BF9DB00F0FEF800F046F872
:10011C00FEE7000000500020202000080000002016
:10012C0020000020200000204C00002010F1FF30A7
:10013C0007D34FF4FA531A46013B002AF6D000BFFE
:10014C00F9E7704708B5074B5A6A074B92B2188803
:10015C001A80101A80B201F071FB044901F0C2FB45
:10016C0008BD00BF002C014020000020BD378635A3
:10017C00094B9A6942F400629A61A3F564434722E1
:10018C009A624FF6FF72DA6200225A621A6842F0E3
:10019C0001021A60FFF7D6BF001002402DE9F04FA4
:1001AC0089B000F0B1F8FFF7E3FF00F0FFFF00F0BB
:1001BC00CDFF00F053FD00F075F900F0D3F90120EC
:1001CC0000F0FEF900F0C0F9494801F023F8642072
:1001DC00FFF7ACFF00F046FD002808DA454801F0B7
:1001EC0019F800F05FFE002000F0F4F9FBE742483C
:1001FC0001F010F805A800F08DFD002808DA3F4842
:10020C0001F008F800F04EFE002000F0E3F9FBE7E7
:10021C00BDF91810BDF9140000F018FF054600F0E8
:10022C001FFD00F04DFFFFF78DFF044605A800F001
:10023C0071FD002804DA002000F0CCF9142053E002
:10024C0000F000FB204600F061FA204600F01CFA9A
:10025C000646204600F0F2F981464946304601F048
:10026C0039FA4FF07C5101F03DFB254B804641465D
:10027C00186800F02FFABDF918100746BDF91400E4
:10028C0000F0E4FE8346BDF91C0000F0F3FE82464C
:10029C0051465A462846234600F0F6FE054652467D
:1002AC0029462346384600F011FF164BD3F800B010
:1002BC000390594601F00EFA01F0DAFCDDF80CC09F
:1002CC0059460FFA80FA604601F002FA01F0D0FCB0
:1002DC0001B2504600F094F9484600973146424628
:1002EC00234600F04BFA0A20FFF720FF9BE700BFE4
:1002FC00C81C0008F11C0008051D0008191D000889
:10030C002C00002028000020254B1A68194642F0CA
:10031C0001021A6000225A601A6822F080721A6078
:10032C001A6842F480321A600A681D4B9203FBD59E
:10033C001C4A116841F010011160116821F007018D
:10034C001160116841F0020111605968164A0A40A7
:10035C005A605A685A605A6842F480625A605A6805
:10036C005A605A6842F4E8125A601A6842F0807275
:10037C001A601A6812F0007F094AFAD0536823F009
:10038C0003035360536843F002035360536803F054
:10039C000C03082BFAD1054A054B1A60704700BFB5
:1003AC0000100240002002400FC0C3FF00A24A040C
:1003BC00000000200028104B03D14FF490721A61FA
:1003CC0015E04FF020024FF48071CBBF1A61196118
:1003DC0059615A6173230028B8BF404258436423C3
:1003EC0090FBF3F0B0F57A7FA8BF4FF47A704FF022
:1003FC0080435863704700BF000C014000280D4B30
:10040C0003D14FF4C0621A6110E04FF400724FF444
:10041C008061CBBF1A61196159615A610028B8BF5C
:10042C004042B0F57A7FA8BF4FF47A704FF080430A
:10043C00986370470008014083684FF6FF7223F001
:10044C0007038360836843F003038360836923F4A9
:10045C00407323F003038361836943F4807343F097
:10046C0001038361836923F4704323F0F0038361F8
:10047C00836943F4405343F030038361036A23F0F0
:10048C0022030362036A43F01103036200238362B5
:10049C00C262436201234361036843F001030360BA
:1004AC0070470000264B9A6942F01D029A61DA6986
:1004BC0042F00702DA61A3F584331A6822F0FF02D6
:1004CC001A601A6842F0BB021A601E4A116821F4C5
:1004DC0070011160116841F440111160516821F0F4
:1004EC000F015160516841F003015160596821F4CA
:1004FC007F615960596841F44C715960596821F019
:10050C000F015960596841F0030159604FF4907123
:10051C0051614FF4C06159614FF480715961196890
:10052C0021F07F411960196841F088411960136806
:10053C0023F07F431360136843F0884313607047C4
:10054C0000100240000C014008B50448FFF774FF8E
:10055C00BDE808400248FFF76FBF00BF0004004031
:10056C00000800404FF0804347229A6202F56872FF
:10057C00DA6200225A639A639A6922F078029A61CD
:10058C009A6942F068029A619A6922F4F0429A617F
:10059C009A6942F4D0429A611A6A42F001021A62D4
:1005AC001A6A42F010021A621A6842F080021A604B
:1005BC0001225A611A6842F001021A607047000069
:1005CC00034B4FF4807208B11A6170475A6170473F
:1005DC000008014010B5094CA042B8BF2046B0F548
:1005EC007A7FB4BF04464FF47A742046FFF7E2FEDC
:1005FC002046BDE81040FFF701BF00BF18FCFFFF0D
:10060C0038B50D4C0546A142B8BF2146B1F57A7FED
:10061C00B4BF08464FF47A70FFF7CCFEA542ACBFCE
:10062C0028462046B0F57A7FA8BF4FF47A70BDE813
:10063C003840FFF7E3BE00BF18FCFFFF38B50E498A
:10064C000E4B0D685A6A044692B20D4B25B91A80AE
:10065C0001230B60002038BD1D880A49551B1A80E8
:10066C00ADB201F0DDFA00B1064C28B201F0E6F8AB
:10067C00214601F0EBF938BD400000200004004099
:10068C00340000206F12033A38B50E490E4B0D683A
:10069C005A6A044692B20D4B25B91A8001230B609D
:1006AC00002038BD1D880A49551B1A80ADB201F0D7
:1006BC00B7FA00B1064C28B201F0C0F8214601F09F
:1006CC00C5F938BD30000020000800403C00002077
:1006DC006F12033A10B500F0FBFF094901F002F963
:1006EC000849044601F0BAFA30B92046064901F02F
:1006FC0097FA10B1044C00E0024C204610BD00BF2C
:10070C00F4FD543C00002041000020C1F8B517490D
:10071C00064601F085FA00B1144E154B30461549CA
:10072C001C6801F0DFF8144F06463D682146284648
:10073C0001F076FA40B13146284600F0CBFF214655
:10074C00054601F08BFA0CE02846214601F086FAAA
:10075C0040B12846314600F0BBFF2146054601F06A
:10076C005FFA00B92C463C60F8BD00BF6F12033A2B
:10077C0024000020000096432C0000202DE9F047B7
:10078C00234C064625680F460135132D90469A4694
:10079C00DDF8209002D82560BDE8F08700231D48C5
:1007AC00236000F037FD304600F062FD1A4800F07F
:1007BC0031FD384600F05CFD184800F02BFD40463A
:1007CC0000F056FD164800F025FD504600F050FD97
:1007DC00144800F01FFD144B186800F049FD134835
:1007EC0000F018FD124B186800F042FD114800F0A3
:1007FC0011FD114B186800F03BFD104800F00AFD8C
:10080C00484600F035FDBDE8F0470D4800F002BD4C
:10081C0038000020331D0008421D0008521D00083E
:10082C005D1D0008651D000824000020741D0008D3
:10083C002C000020841D0008280000208E1D0008BC
:10084C00161D00081D4B70B51A68920635D55C68EC
:10085C001B4DE4B2712C1B4E13D005DC612C0CD05B
:10086C00642C13D1184A09E0732C03D0772C0DD1CA
:10087C00164B00E0164B2B6008E0164A164B1A601C
:10088C0004E0154A00232B6033601360134800F01A
:10089C00C1FC204600F0B4FC114800F0BBFC2868F9
:1008AC0000F0E6FC0F4800F0B5FC306800F0E0FC0E
:1008BC00BDE870400C4800F0ADBC70BD0048004075
:1008CC00240000202C00002000005C430000F042BB
:1008DC000000F0C200005CC3280000209F1D00082F
:1008EC00A61D0008B61D0008161D0008084B094A75
:1008FC00FF211A605A6000221A725A729972DA72C7
:10090C001A731A615A619A61034B1A60704700BFDF
:10091C0004000020C71D000848000020194B9A69EC
:10092C0042F009029A61DA6942F48002DA61A3F5B5
:10093C0082335A6822F470625A605A6842F47062C8
:10094C005A605A6822F470425A605A6842F47042F3
:10095C005A60A3F534431A6842F400421A601A68CC
:10096C0022F400421A6024225A60B422DA61252251
:10097C001A621A6842F480621A601A6842F0010224
:10098C001A6070470010024010B50446202000F099
:10099C0037FC2046BDE8104000F03CBC114B73B551
:1009AC00002211481A60D02202611A680F490646CB
:1009BC00013912D0706940F202740440224384075A
:1009CC00094D07D51A606B6900200193AB6901933F
:1009DC00019B05E010F4E06FEAD01A604FF0FF3095
:1009EC0002B070BD4800002000580040A1860100F4
:1009FC00054B06490A68104204D1013BFAD14FF06D
:100A0C00FF30704700207047A0860100145800404A
:100A1C0038B5094C05462368402023F480632360D5
:100A2C00FFF7E6FF002803DB236900202B7038BD9D
:100A3C004FF0FF3038BD00BF0058004010B50446E1
:100A4C008020FFF7D5FF002803DB034B00201C613F
:100A5C0010BD4FF0FF3010BD00580040034B01207B
:100A6C001A6842F480721A60FFF7C2BF0058004047
:100A7C0010B50C4CA37284E803000B4B6821217257
:100A8C0062729A68C2F38022E2729B68C3F3C0233D
:100A9C002373064B1B682361054B5A6962619B6982
:100AAC00A36110BD04000020000C01404800002090
:100ABC00005800404FF4FA631A46013B0AB100BFDC
:100ACC00FAE77047030910B5092B044694BF03F1EC
:100ADC00300003F1370000F093FB04F00F000928FD
:100AEC0094BF30303730BDE8104000F089BB10B5F2
:100AFC000446000AFFF7E6FFE0B2BDE81040FFF73E
:100B0C00E1BF000010B50446154800F083FB2046F9
:100B1C00144C00F07FFB144800F07CFBA068C0F381
:100B2C00802000F080FB114800F074FBA068A4F555
:100B3C003444C0F3C02000F076FB0D4800F06AFB93
:100B4C00606980B2FFF7D3FF0A4800F063FBA0692D
:100B5C0080B2FFF7CCFFBDE81040074800F05ABB4D
:100B6C00CC1D0008000C0140D91D0008DF1D000839
:100B7C00E51D0008ED1D0008161D0008F8B53048ED
:100B8C00FFF7C0FF2F4930480B684FF4806623F005
:100B9C0001030B600369092443F480030361FFF72D
:100BAC0089FF0369374623F480030361FFF782FF53
:100BBC000B6843F400430B60FFF77CFF0B68234882
:100BCC0023F400430B60FFF79DFF21494B6823F48E
:100BDC0070634B604B6843F4E0634B604B6823F4E9
:100BEC0070434B604B6843F4E0434B604FF44063FD
:100BFC000B61FFF75FFF4F611548FFF75BFF0E615D
:100C0C00FFF758FF013C4FF48065F4D10561FFF705
:100C1C0051FF4FF400614161FFF74CFF0561FFF795
:100C2C0049FF0161FFF746FF0A48FFF76BFFFFF72B
:100C3C0075FE0948FFF766FFBDE8F840FFF73ABFBD
:100C4C00F51D00080058004000100240FC1D000873
:100C5C00000C0140091E0008191E0008FFF75EBEBB
:100C6C007047000010B5214B214A146814F002049F
:100C7C0004D0013BF9D11F481F492EE0FFF7EEFECF
:100C8C00002802DA1B481D4927E0FFF787FE0028E1
:100C9C0002DA18481A4920E06B20FFF7CFFE002833
:100CAC0002DA1448174918E02046FFF7C7FE00285F
:100CBC0002DA1048144910E00420FFF799FE0028CE
:100CCC0002DA0C48114908E0114B1A6842F4007220
:100CDC001A60FFF70BFE204610BD6B22FF23FFF7B7
:100CEC00C7FEFFF74BFF4FF0FF3010BDA086010091
:100CFC0018580040241E00085D1E0008911E0008B4
:100D0C002E1E00083A1E0008491E0008541E00083A
:100D1C00005800402DE9F041554B564A86B0044628
:100D2C00166816F0020604D0013BF9D1524853491B
:100D3C008DE0FFF793FE002802DA4F48504986E019
:100D4C00FFF72CFE002802DA4B484E497FE03B208F
:100D5C00FFF774FE002802DA47484B4977E004207D
:100D6C00FFF746FE002802DA434848496FE0FFF7D8
:100D7C0075FE002802DA4048454968E0454DD1230C
:100D8C002B610220FFF734FE002802DA3A48424970
:100D9C005DE02B680DF1080C43F480632B606B69EC
:100DAC000CF10D080193AB690193019BF7B20D2F68
:100DBC000FD12B68404623F480632B602B6843F4DF
:100DCC0000732B60FFF724FE00280ADA2A48334907
:100DDC0042E04020FFF70CFE00283BDB2B6906F8B5
:100DEC000C3001360E2EE1D12A4B1A6842F4806287
:100DFC001A60FFF77BFD9DF808209DF80930002054
:100E0C0043EA022323809DF80A209DF80B3043EA25
:100E1C00022363809DF80C209DF80D3043EA0223D9
:100E2C00A3809DF810209DF8113043EA0223E38043
:100E3C009DF812209DF8133043EA022323819DF87C
:100E4C0014209DF8153043EA022363810CE03B2209
:100E5C00FF2303E0084812493B223B46FFF708FEFC
:100E6C00FFF78CFE4FF0FF3006B0BDE8F08100BFFD
:100E7C00A0860100185800406D1E00085D1E000879
:100E8C00771E00082E1E00083A1E00087F1E000860
:100E9C00971E000800580040A11E0008AD1E000857
:100EAC00BC1E000810B54E4C4E4800F0B3F920683B
:100EBC0000F0B0F94C4800F0ADF9606800F0AAF908
:100ECC004A4800F0A7F9207AFFF7FCFD484800F0EB
:100EDC00A1F9607AFFF7F6FDA37AFF2B05D0454800
:100EEC0000F098F9A07A00F09EF9434800F092F9CE
:100EFC00E07A00F098F9414800F08CF9207B00F082
:100F0C0092F93F4800F086F9A08AFFF7F0FD3D48C2
:100F1C0000F080F9208BFFF7EAFD3B4800F07AF9EE
:100F2C00208AFFF7E4FD394800F074F963695A052B
:100F3C0002D53748FFF728FD6369DB0502D5354834
:100F4C00FFF722FD6369980502D53348FFF71CFDB6
:100F5C00A369990702D53148FFF716FD23695A0595
:100F6C0006D51F4B5B695B0502D42D48FFF70CFDC2
:100F7C002369D80506D51A4B5B69D90502D42948D3
:100F8C00FFF702FD23699A0506D5154B5B699B0596
:100F9C0002D42548FFF7F8FC244800F03BF9E27A2C
:100FAC000F4B0AB11A7B0AB9214811E05A69500556
:100FBC0001D520480CE0910501D51F4808E0D20569
:100FCC0001D51E4804E09B699B074CBF1C481D487B
:100FDC0000F020F9BDE810401B4800F01BB900BF21
:100FEC0004000020C61E0008D41E0008DB1E0008EA
:100FFC00E31E0008EB1E0008D91D0008DF1D0008C9
:10100C00E51D0008ED1D0008F11E0008FE1E00087D
:10101C00061F0008091F00080E1F0008131F0008F8
:10102C00181F0008201F00082A1F0008341F000882
:10103C003C1F00084F1F0008651F0008881F000890
:10104C00A41F0008B31F0008161D000838B5404245
:10105C000D4600F0F3FB0446284600F0EFFB01467A
:10106C00204600F06FF9024900F03CFC38BD00BF8F
:10107C00E12E654208B500F0E1FB024900F0E6FC08
:10108C0008BD00BF0000034338B5044608461946A6
:10109C00154600F027FC0146204600F01BFB0649D4
:1010AC0000F020FC05490446284600F01BFC0146D4
:1010BC00204600F00FFB38BD48E17A3F0AD7A33C2D
:1010CC00014B00221A60704744000020F8B500F173
:1010DC0000401D46164600F0FBFA174C2946074601
:1010EC0000F000FC216800F0F5FA14492060054678
:1010FC00384600F0F7FB00210446284600F0F2FBCE
:10110C000146204600F0E6FA0D490446304600F050
:10111C00E9FB0146204600F0DBFA0A49044600F0E0
:10112C009DFD30B92046084900F07AFD10B1064CFF
:10113C0000E0044C2046F8BD440000200000704242
:10114C009A99993F00006144000061C4164B9A695A
:10115C0042F011029A61DA6942F48022DA61A3F555
:10116C0088335A6822F030025A605A6842F01002F2
:10117C005A6003F580535A6822F470625A605A68B8
:10118C0042F430625A605A6822F470425A605A68CB
:10119C0042F480425A60A3F5484340F6A6629A6036
:1011AC0042F20C02DA60704700100240134B9A694D
:1011BC0042F004029A61DA6942F40032DA61A3F572
:1011CC0084331A6822F470621A601A6842F430622E
:1011DC001A601A6822F470421A601A6842F480424B
:1011EC001A60A3F544434FF49C729A600C22DA60A7
:1011FC00DA6842F40052DA60704700BF0010024017
:10120C00034A13681B06FCD5014B5860704700BF9E
:10121C000044004008B5411E11F8010F10B1FFF752
:10122C00EFFFF9E708BD1FB5011E05D1302004B052
:10123C00BDE81040FFF7E4BF03DA2D20FFF7E0FF15
:10124C00494200230A2091FBF0F200FB12113031CD
:10125C000DF803101C4611460133002AF3D11DF87A
:10126C000400FFF7CDFF14F1FF34F8D204B010BD29
:10127C0038B50021044600F0D3FC20B12D20FFF737
:10128C00BFFF04F100442046124900F02BFB4FF045
:10129C007C5100F01FFA00F0EBFC642290FBF2F39F
:1012AC0002FB13041846FFF7BEFF0A252E20FFF79A
:1012BC00A7FF94FBF5F101F13000C0B2FFF7A0FFDE
:1012CC0005FB114404F13000C0B2BDE83840FFF713
:1012DC0097BF00BF0000C842FEF71ABFFCE7FBE750
:1012EC00FAE7F9E7F8E7F7E7F6E7F5E7F4E7F3E706
:1012FC00F2E7F1E7F0E7EFE7EEE7EDE7ECE7EBE736
:10130C00EAE7E9E7E8E7E7E7E6E7E5E7E4E7E3E765
:10131C00E2E7E1E7E0E7DFE7DEE7DDE7DCE7DBE795
:10132C00DAE7D9E7D8E7D7E7D6E7D5E7D4E7D3E7C5
:10133C00D2E7D1E7D0E7CFE7CEE7CDE7CCE7CBE7F5
:10134C00CAE7C9E700F000B8F8B520F0004221F078
:10135C0000450646B2F1FF4FD8BFB5F1FF4F04462A
:10136C003BDCB1F17E5F43D08F1707F0020747EAF1
:10137C00D07742B9022F35D0032F38D140F6DB702D
:10138C00CCF24900F8BD0DB3B5F1FF4F56D0B2F118
:10139C00FF4F1BD0521BD2153C2AC4BF40F6DB704A
:1013AC00C3F6C97028DD012F53D0022F38D0002F7F
:1013BC0052D04BF62E51C3F2BB3100F08BF940F6F4
:1013CC00DB71C4F2490100F083F9F8BD002C40F642
:1013DC00DB7022DBC3F6C970F8BD0846314600F05D
:1013EC0079F9F8BD40F6DB70C4F24900F8BDF8BDE0
:1013FC00BDE8F84000F04CB812F13C0FACBF002235
:10140C00012212EAD17218BF0020CCD100F01EFBD1
:10141C0000F056F900F03CF8C5E7CBF6C970F8BD02
:10142C004BF62E51C3F2BB3100F054F9014640F695
:10143C00DB70C4F2490000F04BF9F8BDB2F1FF4F7C
:10144C000BD0022FCED0032F98D0012F10D000201C
:10145C00F8BD00F10040F8BDF8BD022F13D0032FEA
:10146C000CD0012F40F6DB7005D0C3F64970F8BDE7
:10147C004FF00040F8BDCBF64970F8BD4CF6E430A7
:10148C00CCF21600F8BD4CF6E430C4F21600F8BDF0
:10149C002DE9F04120F00045B5F1A14F0446064678
:1014AC000CDBB5F1FF4F00F39C80002C40F6DB7099
:1014BC0040F3CC80C3F6C970BDE8F0814FF6FF73E2
:1014CC00C3F6DF639D4200F3A180B5F1445FC0F227
:1014DC008D804FF0FF372146204600F003FA01467D
:1014EC00804600F0FFF946F6D711C3F68541054654
:1014FC0000F0F8F94DF65921C3F64B5100F0EAF81B
:10150C00294600F0EFF946F63531C3F6885100F064
:10151C00E1F8294600F0E6F942F66E61C3F6BA51DD
:10152C0000F0D8F8294600F0DDF944F62511C3F691
:10153C00126100F0CFF8294600F0D4F94AF6AB213D
:10154C00C3F6AA6100F0C6F8414600F0CBF94AF2A6
:10155C002121CBF615518046284600F0C3F94FF2F5
:10156C006B11C3F66E5100F0B3F8294600F0BAF9CE
:10157C0048F29571C3F69D5100F0AAF8294600F087
:10158C00B1F948F63861C3F6E35100F0A1F82946E9
:10159C0000F0A8F94CF6CD41C3F64C6100F098F878
:1015AC00294600F09FF97B1C0146404652D041F67B
:1015BC00E87500F08FF8C0F60005214600F092F9AE
:1015CC0005EB8703196900F083F8214600F080F8D9
:1015DC00014655F8270000F07BF8002E32DBBDE801
:1015EC00F081014600F076F8BDE8F0814FF2CA2197
:1015FC00C7F2491100F06EF84FF07E5100F02EFB4F
:10160C0000283FF466AF2046BDE8F08100F058F8A2
:10161C004FF6FF73C3F697739D424FF6FF73044664
:10162C0023DCC3F62F739D4241DC0146002700F0FA
:10163C0051F84FF07E5100F04BF84FF080410546C9
:10164C00204623E000F10040BDE8F081CBF6C970E4
:10165C00BDE8F08100F03EF8214600F043F9014668
:10166C00204600F035F8BDE8F081C4F21B039D4222
:10167C0014DC4FF07F51022700F02AF84FF07F5115
:10168C000546204600F02EF94FF07E5100F022F86E
:10169C000146284600F0DAF904461CE70146002012
:1016AC00CBF68070032700F0D1F9044613E74FF016
:1016BC007E51012700F00CF805462046E4E700BFF8
:1016CC0020F00040704700BF80F0004002E000BFF7
:1016DC0081F0004142001FBF5FEA410392EA030F11
:1016EC007FEA226C7FEA236C6AD04FEA1262D2EB5B
:1016FC001363C1BFD218414048404140B8BF5B4260
:10170C00192B88BF704710F0004F40F4000020F0F8
:10171C007F4018BF404211F0004F41F4000121F00E
:10172C007F4118BF494292EA030F3FD0A2F1010258
:10173C0041FA03FC10EB0C00C3F1200301FA03F196
:10174C0000F0004302D5494260EB4000B0F5000FB9
:10175C0013D3B0F1807F06D340084FEA310102F178
:10176C000102FE2A51D2B1F1004F40EBC25008BF2A
:10177C0020F0010040EA03007047490040EB0000F4
:10178C0010F4000FA2F10102EDD1B0FA80FCACF123
:10179C00080CB2EB0C0200FA0CF0AABF00EBC25022
:1017AC0052421843BCBFD0401843704792F0000F10
:1017BC0081F4000106BF80F400000132013BB5E763
:1017CC004FEA41037FEA226C18BF7FEA236C21D0D9
:1017DC0092EA030F04D092F0000F08BF084670473E
:1017EC0090EA010F1CBF0020704712F07F4F04D10C
:1017FC00400028BF40F00040704712F100723CBF1F
:10180C0000F50000704700F0004343F0FE4040F448
:10181C00000070477FEA226216BF08467FEA236306
:10182C000146420206BF5FEA412390EA010F40F4F1
:10183C00800070474FF0000304E000BF10F000433D
:10184C0048BF40425FEA000C08BF704743F0964324
:10185C0001464FF000001CE050EA010208BF70473F
:10186C004FF000030AE000BF50EA010208BF7047C6
:10187C0011F0004302D5404261EB41015FEA010CDB
:10188C0002BF84460146002043F0B64308BFA3F1D3
:10189C008053A3F50003BCFA8CF2083AA3EBC253B5
:1018AC0010DB01FA02FC634400FA02FCC2F12002D4
:1018BC00BCF1004F20FA02F243EB020008BF20F00B
:1018CC000100704702F1200201FA02FCC2F1200271
:1018DC0050EA4C0021FA02F243EB020008BF20EA66
:1018EC00DC7070474FF0FF0C1CEAD0521EBF1CEA94
:1018FC00D15392EA0C0F93EA0C0F6FD01A4480EA82
:10190C00010C400218BF5FEA41211ED04FF000636A
:10191C0043EA501043EA5111A0FB01310CF0004096
:10192C00B1F5000F3EBF490041EAD3715B0040EABC
:10193C00010062F17F02FD2A1DD8B3F1004F40EB8C
:10194C00C25008BF20F00100704790F0000F0CF05F
:10195C00004C08BF49024CEA502040EA51207F3A23
:10196C00C2BFD2F1FF0340EAC250704740F40000FE
:10197C004FF00003013A5DDC12F1190FDCBF00F0EF
:10198C0000407047C2F10002410021FA02F1C2F19D
:10199C00200200FA02FC5FEA310040F1000053EA39
:1019AC004C0308BF20EADC70704792F0000F00F087
:1019BC00004C02BF400010F4000F013AF9D040EA8D
:1019CC000C0093F0000F01F0004C02BF490011F421
:1019DC00000F013BF9D041EA0C018FE70CEAD1531F
:1019EC0092EA0C0F18BF93EA0C0F0AD030F0004C9F
:1019FC0018BF31F0004CD8D180EA010000F0004053
:101A0C00704790F0000F17BF90F0004F084691F010
:101A1C00000F91F0004F14D092EA0C0F01D142024A
:101A2C000FD193EA0C0F03D14B0218BF084608D113
:101A3C0080EA010000F0004040F0FE4040F400005D
:101A4C00704740F0FE4040F4400070474FF0FF0CF0
:101A5C001CEAD0521EBF1CEAD15392EA0C0F93EA37
:101A6C000C0F69D0A2EB030280EA010C49024FEA89
:101A7C00402037D04FF0805343EA111143EA101342
:101A8C000CF000408B4238BF5B0042F17D024FF4FA
:101A9C00000C8B4224BF5B1A40EA0C00B3EB510FD5
:101AAC0024BFA3EB510340EA5C00B3EB910F24BFBE
:101ABC00A3EB910340EA9C00B3EBD10F24BFA3EB43
:101ACC00D10340EADC001B0118BF5FEA1C1CE0D10B
:101ADC00FD2A3FF650AF8B4240EBC25008BF20F0BE
:101AEC00010070470CF0004C4CEA50207F32C2BF12
:101AFC00D2F1FF0340EAC250704740F400004FF0AF
:101B0C000003013A37E792F0000F00F0004C02BFDF
:101B1C00400010F4000F013AF9D040EA0C0093F0A9
:101B2C00000F01F0004C02BF490011F4000F013B03
:101B3C00F9D041EA0C0195E70CEAD15392EA0C0F6B
:101B4C0008D142027FF47DAF93EA0C0F7FF470AFA3
:101B5C00084676E793EA0C0F04D14B023FF44CAFE6
:101B6C0008466EE730F0004C18BF31F0004CCAD17B
:101B7C0030F000427FF45CAF31F000437FF43CAFB7
:101B8C005FE700BF4FF0FF3C06E000BF4FF0010CD9
:101B9C0002E000BF4FF0010C4DF804CD4FEA4002BB
:101BAC004FEA41037FEA226C18BF7FEA236C11D005
:101BBC0001B052EA530C18BF90EA010F58BFB2EBB8
:101BCC00030088BFC81738BF6FEAE17018BF40F038
:101BDC00010070477FEA226C02D15FEA402C05D1EC
:101BEC007FEA236CE4D15FEA412CE1D05DF8040B71
:101BFC00704700BF844608466146FFE70FB5FFF704
:101C0C00C9FF002848BF10F1000F0FBD4DF808EDBB
:101C1C00FFF7F4FF0CBF012000205DF808FB00BFAC
:101C2C004DF808EDFFF7EAFF34BF012000205DF806
:101C3C0008FB00BF4DF808EDFFF7E0FF94BF012053
:101C4C0000205DF808FB00BF4DF808EDFFF7D2FF50
:101C5C0094BF012000205DF808FB00BF4DF808ED93
:101C6C00FFF7C8FF34BF012000205DF808FB00BF60
:101C7C004FEA4002B2F1FE4F0FD34FF09E03B3EB8D
:101C8C0012620DD94FEA002343F0004310F0004FCD
:101C9C0023FA02F018BF404270474FF00000704723
:101CAC0012F1610F01D1420205D110F0004008BFC2
:101CBC006FF0004070474FF0000070474D505536A4
:101CCC003035302049324332202B20555341525469
:101CDC003220706974636820746573742073746146
:101CEC0072740D0A004D50553630353020696E69CE
:101CFC0074206661696C0D0A004D505536303530D4
:101D0C0020696E697420646F6E650D0A004D505524
:101D1C0036303530206669727374207265616420C8
:101D2C006661696C0D0A005269676874207370658E
:101D3C006564203A200020204C6566742073706521
:101D4C006564203A200020207370656564203A2079
:101D5C000020206474203A20002020436D6420531E
:101D6C0070656564203A2000202052616D7020530C
:101D7C0070656564203A200020205475726E203AFC
:101D8C0020002054617267657420416E676C652079
:101D9C003A2000434D44203A20002020436D64201B
:101DAC00546172676574203A2000202052616D7076
:101DBC0020546172676574203A20006E6F6E650066
:101DCC00493243205245434F56455220002053433D
:101DDC004C3D00205344413D00205352313D30785E
:101DEC0000205352323D3078006265666F72650098
:101DFC0061667465725F6465696E697400616674AE
:101E0C0065725F6275735F636C65617200616674A5
:101E1C0065725F696E69740077726974655F72656B
:101E2C00670073656E645F616464725F77007772DC
:101E3C006974655F7265675F61646472007772696B
:101E4C0074655F6461746100776169745F62746664
:101E5C0000776169745F627573795F636C65617239
:101E6C0000726561645F726567730073746172748C
:101E7C005F7700776169745F6274665F6265666F35
:101E8C0072655F72657374617274007265737461EC
:101E9C0072745F720073656E645F616464725F720A
:101EAC0000726561645F6C6173745F627974650064
:101EBC00726561645F6279746500493243204552F2
:101ECC00524F52206F703D0020737465703D00209E
:101EDC006465763D307800207265673D307800206F
:101EEC006964783D00205352315F5345454E3D3077
:101EFC00780020666C6167733D0041460042455294
:101F0C00520041524C4F00425553590041465F53C9
:101F1C0045454E00424552525F5345454E00415295
:101F2C004C4F5F5345454E002063617573653D0012
:101F3C006275735F6C696E655F737475636B5F6CF0
:101F4C006F77006E6F5F61636B5F73656E736F723B
:101F5C005F6F725F61646472006172626974726156
:101F6C0074696F6E5F6C6F73745F6F725F627573A1
:101F7C005F636F6E74656E74696F6E006275735F0C
:101F8C0070726F746F636F6C5F6572726F725F6F7C
:101F9C00725F6E6F697365006275735F62757379DA
:101FAC005F737475636B0074696D656F75745F77BF
:101FBC006974686F75745F6572726F725F666C615D
:101FCC006700505F4143433A0020505F46555345EC
:101FDC00443A00204354524C3A0000003863ED3E22
:101FEC00DA0F493F5E987B3FDA0FC93F6937AC3156
:101FFC0068212233B40F14336821A233F8B500BF23
:10200C00F8BC08BC9E467047F8B500BFF8BC08BCCD
:04201C009E46704725
:1020200000127A00C71D0008C71D00080000FF004D
:1020300000000000000000000000000000000000A0
:04000005080000ED02
:00000001FF
